{
  "contractName": "Voting",
  "abi": [
    {
      "constant": true,
      "inputs": [],
      "name": "nombreDeCandidat",
      "outputs": [
        {
          "name": "",
          "type": "uint256"
        }
      ],
      "payable": false,
      "stateMutability": "view",
      "type": "function"
    },
    {
      "constant": true,
      "inputs": [
        {
          "name": "",
          "type": "address"
        }
      ],
      "name": "electeurs",
      "outputs": [
        {
          "name": "",
          "type": "bool"
        }
      ],
      "payable": false,
      "stateMutability": "view",
      "type": "function"
    },
    {
      "inputs": [],
      "payable": false,
      "stateMutability": "nonpayable",
      "type": "constructor"
    },
    {
      "constant": false,
      "inputs": [],
      "name": "Election",
      "outputs": [],
      "payable": false,
      "stateMutability": "nonpayable",
      "type": "function"
    },
    {
      "constant": false,
      "inputs": [
        {
          "name": "_nom",
          "type": "string"
        }
      ],
      "name": "ajouterCandidat",
      "outputs": [],
      "payable": false,
      "stateMutability": "nonpayable",
      "type": "function"
    },
    {
      "constant": true,
      "inputs": [
        {
          "name": "_candidatNumero",
          "type": "uint256"
        }
      ],
      "name": "rechercherCandidat",
      "outputs": [
        {
          "name": "",
          "type": "string"
        },
        {
          "name": "",
          "type": "uint256"
        }
      ],
      "payable": false,
      "stateMutability": "view",
      "type": "function"
    },
    {
      "constant": false,
      "inputs": [
        {
          "name": "_candidatNumero",
          "type": "uint256"
        }
      ],
      "name": "voter",
      "outputs": [],
      "payable": false,
      "stateMutability": "nonpayable",
      "type": "function"
    }
  ],
  "bytecode": "0x608060405234801561001057600080fd5b50336000806101000a81548173ffffffffffffffffffffffffffffffffffffffff021916908373ffffffffffffffffffffffffffffffffffffffff16021790555061072e806100606000396000f3fe608060405260043610610078576000357c0100000000000000000000000000000000000000000000000000000000900463ffffffff1680631d6c263c1461007d578063545feef514610094578063a11176501461015c578063a74a1a0314610217578063ab8ed1ba14610242578063ec2e15271461027d575b600080fd5b34801561008957600080fd5b506100926102e6565b005b3480156100a057600080fd5b5061015a600480360360208110156100b757600080fd5b81019080803590602001906401000000008111156100d457600080fd5b8201836020820111156100e657600080fd5b8035906020019184600183028401116401000000008311171561010857600080fd5b91908080601f016020809104026020016040519081016040528093929190818152602001838380828437600081840152601f19601f820116905080830192505050505050509192919290505050610364565b005b34801561016857600080fd5b506101956004803603602081101561017f57600080fd5b8101908080359060200190929190505050610448565b6040518080602001838152602001828103825284818151815260200191508051906020019080838360005b838110156101db5780820151818401526020810190506101c0565b50505050905090810190601f1680156102085780820380516001836020036101000a031916815260200191505b50935050505060405180910390f35b34801561022357600080fd5b5061022c61051e565b6040518082815260200191505060405180910390f35b34801561024e57600080fd5b5061027b6004803603602081101561026557600080fd5b8101908080359060200190929190505050610524565b005b34801561028957600080fd5b506102cc600480360360208110156102a057600080fd5b81019080803573ffffffffffffffffffffffffffffffffffffffff16906020019092919050505061061b565b604051808215151515815260200191505060405180910390f35b6103246040805190810160405280600a81526020017f43616e6469646174203100000000000000000000000000000000000000000000815250610364565b6103626040805190810160405280600a81526020017f43616e6469646174203200000000000000000000000000000000000000000000815250610364565b565b3373ffffffffffffffffffffffffffffffffffffffff166000809054906101000a900473ffffffffffffffffffffffffffffffffffffffff1673ffffffffffffffffffffffffffffffffffffffff161415156103bf57600080fd5b6003600081548092919060010191905055506103d961063b565b6060604051908101604052806003548152602001838152602001600081525090508060016000600354815260200190815260200160002060008201518160000155602082015181600101908051906020019061043692919061065d565b50604082015181600201559050505050565b60606000600160008481526020019081526020016000206001016001600085815260200190815260200160002060020154818054600181600116156101000203166002900480601f01602080910402602001604051908101604052809291908181526020018280546001816001161561010002031660029004801561050e5780601f106104e35761010080835404028352916020019161050e565b820191906000526020600020905b8154815290600101906020018083116104f157829003601f168201915b5050505050915091509150915091565b60035481565b600260003373ffffffffffffffffffffffffffffffffffffffff1673ffffffffffffffffffffffffffffffffffffffff16815260200190815260200160002060009054906101000a900460ff1615151561057d57600080fd5b60008111801561058f57506003548111155b151561059a57600080fd5b6001600260003373ffffffffffffffffffffffffffffffffffffffff1673ffffffffffffffffffffffffffffffffffffffff16815260200190815260200160002060006101000a81548160ff021916908315150217905550600160008281526020019081526020016000206002016000815480929190600101919050555050565b60026020528060005260406000206000915054906101000a900460ff1681565b6060604051908101604052806000815260200160608152602001600081525090565b828054600181600116156101000203166002900490600052602060002090601f016020900481019282601f1061069e57805160ff19168380011785556106cc565b828001600101855582156106cc579182015b828111156106cb5782518255916020019190600101906106b0565b5b5090506106d991906106dd565b5090565b6106ff91905b808211156106fb5760008160009055506001016106e3565b5090565b9056fea165627a7a72305820bc7510741330cfdab76e4f3c398ae2c4c3c94d9b227a543f86c892675f8c8d670029",
  "source": "pragma solidity >=0.5.0 <0.7.0;\r\n\r\ncontract Voting {\r\n    address administrateur;\r\n    constructor() public {\r\n        administrateur = msg.sender;\r\n    }\r\n\r\n    // Modeliser un candidat\r\n\r\n    struct Candidat {\r\n        uint candidatNumero;\r\n        string nom;\r\n        uint nombreDeVote;\r\n    }\r\n\r\n    mapping(uint => Candidat) candidats;\r\n    mapping(address => bool) public electeurs;\r\n\r\n    uint public nombreDeCandidat;\r\n\r\n    // Ajouter un Candidat\r\n    \r\n    // Initialiser les élections\r\n    function Election() public {\r\n        ajouterCandidat(\"Candidat 1\");\r\n        ajouterCandidat(\"Candidat 2\");\r\n    }\r\n\r\n    function ajouterCandidat(string memory _nom) public {\r\n        require(administrateur == msg.sender);\r\n        nombreDeCandidat++;\r\n        Candidat memory unCandidat = Candidat(nombreDeCandidat, _nom, 0);\r\n        candidats[nombreDeCandidat] = unCandidat;\r\n    }\r\n\r\n    \r\n\r\n    // Rechercher un Candidat (enlever le nombre de Vote)\r\n\r\n    function rechercherCandidat(uint _candidatNumero) public view returns(string memory, uint) {\r\n        return(candidats[_candidatNumero].nom, candidats[_candidatNumero].nombreDeVote);\r\n    } \r\n\r\n    // Voter\r\n    function voter(uint _candidatNumero) public {\r\n        require(!electeurs[msg.sender]);\r\n        require(_candidatNumero > 0 && _candidatNumero <= nombreDeCandidat);\r\n        electeurs[msg.sender] = true;\r\n        candidats[_candidatNumero].nombreDeVote++;\r\n    }\r\n\r\n}",
  "sourcePath": "C:/Users/Vincent/Documents/Projet Code/training_blockchain/voting_solidity/src/contracts/Voting.sol",
  "compiler": {
    "name": "solc",
    "version": "0.5.0+commit.1d4f565a.Emscripten.clang"
  },
  "schemaVersion": "3.0.2",
  "updatedAt": "2019-08-26T14:58:29.751Z",
  "devdoc": {
    "methods": {}
  },
  "userdoc": {
    "methods": {}
  }
}